:400000000040002011000000650B0000650B000080B500AF00F0D4FD80B500AF224B12221A6002F01FF8214B181C01F09DFE012002F028F8302001F0C9FE1D4B1D4A1A6012
:400040001D4B8022D2051A601C4B1C4A126802210A431A601A4B1B4A1A601B4B1A4A126808218A431A60FA23DB00181C01F0FAFE164B181C01F04AFF154BC82252011A6001
:40008000144B154A1A60154B802212061A60144B8022D2021A60134B40221A60064B8022D2051A60BD4680BD30001040001BB70004010B40060000800C020B4078002E4000
:4000C0007C002E406A2D00006CF02E40DC050000000301400000014040FF008008010B4000010B400401014080B582B000AF72B6424B00221A60FB1D00221A7023E0FB1D64
:400100001A78131C5B009B185B003D4A9B183B603B681A78597809020A43997809040A43DB781B061343191C3B681A795B791B0213439BB2081C191C00F0C6FDFB1D1A7878
:40014000FB1D01321A70FB1D1B78012BD7D92D4BEE2212061A602C4B992212041A602B4B992212041A602A4B992212041A60294B992212041A60284B992212041A60274AD8
:40018000264B1B78DBB202210B43DBB21370244A234B1B78DBB23C218B43DBB214210B43DBB213701D4A1D4B1B78DBB216210B43DBB213701B4BD82212041A601A4B2022CB
:4001C0001A601A4BC42292021A60194B20221A60184B80221A60184BB022D2031A60174B8022D2011A60164BD82212041A60FFF713FF00F079FDBD4602B080BD6CF02E40A3
:40020000D8500100000002400001024000500F4010500F4020500F4030500F4000700F4001700F400800044000010440080104401801044000020440080204400C02044094
:400240000803044010B5064C2378002B07D1054B002B02D0044800E000BF0123237010BDD00F002000000000984C010008B5084B002B03D00748084900E000BF07480368D3
:40028000002B00D108BD064B002BFBD09847F9E700000000984C0100D40F0020A80B00200000000090B587B000AF786039607B68272B00D1A8E00FD8032B00D16FE004D881
:4002C000012B1DD0022B5CD0EEE0042B00D16BE0262B00D171E0E7E0422B00D1D0E006D8282B00D19CE0412B00D1B6E0DCE0432B00D1D6E082225200934200D1D3E0D3E047
:400300006B4B181C02F03EFC0C23FB18181C03F001FC1723FB1806221A7013E01723FB181B78013B0C22BA18D35C1A1C614B181C111C02F027FC1723FB181A781723FB1880
:40034000013A1A701723FB181B78002BE6D15A4B181C02F093FC1423FC18002000F0AAFE031C23801423FB181B88002B08D01423FB181B88514A101C191C02F003FC93E09A
:4003800092E03B681B78012B04D14D4B181C02F075FC89E04B4B181C02F070FC84E04A4B181C02F06BFC7FE03B681B781A1C474B181C111C02F0E6FB76E0454B5B78002BD9
:4003C00013D1444B1B78012B07D1434B181C02F055FC404B00221A7015E0404B181C02F04DFC3C4B01221A705EE03A4B1B78012B04D13B4B181C02F041FC04E0394B181CB8
:4004000002F03CFC50E04FE0314B1B781A1C364B181C111C02F0B6FB2E4B02221A7043E0324B181C02F02AFC1423FC18002000F041FE031C2380264B00221A701423FB1893
:400440001B88002B08D01423FB181B88284A101C191C02F097FB27E026E01D4A3B68111C1A1C0223081C111C1A1C02F07AFB184B5B781A1C1F4B181C111C02F083FB13E06B
:400480001D4B181C02F0FAFB114B00225A701B4B00221A701A4B002001211A1C00F096FF02E0C04600E0C046BD4607B090BDC0469C4C0100C04C0100C84C0100CC4C0100FE
:4004C000F04C0100344D0100484D01005C4D010024210020EC0F00207C4D0100984D0100B44D0100D44D0100F44D01001C4E0100404E0100644E0100884E0100EE0F0020C6
:400500002921002080B500AF034B01221A7001F0BBFBBD4680BDC046ED0F002080B500AF01F0FAFD0E4B181C01F0C6FB0120012101F030FE0120012101F058FE094B0120FD
:40054000191C01F0B9FE012001F044FF80235B00181C01F081FE01F0B5FDBD4680BDC04669050000FF7F000080B500AF01F0ECFE021C8023DB0013401DD0104B1B78022B1C
:4005800014D00F4B1B78142B0AD00E4B1B78002B06D00B4B1B780133DAB2094B1A7005E0084B00221A70064B00221A708023DB00181C01F0D7FEBD4680BDC046EC0F002023
:4005C000282100202921002080B500AF464B1B78002B06D1002000F06FFC012001F0D4FA2DE0414B1B78012B20D1012000F064FC3E4B1B880F2B0DD13D4B1B78012B03D1AA
:400600003B4B00221A7002E0394B01221A70374B00221A80354B1B8801339AB2334B1A80334B1B78181C01F0AFFA08E0012000F043FC012001F0A8FA012000F063FC2A4BCC
:400640001B78022B4DD02B4B1B78012B27D12A4B1B78142B23D0294B1B78012B06D1284B181C02F00BFB254B00221A70254B1B880F2B0DD1244B1B78012B03D1224B0022B5
:400680001A7002E0204B01221A701E4B00221A801C4B1B8801339AB21A4B1A801CE0154B1B78022B12D1144B1B78142B0ED0134B1B78012B06D1154B181C02F0DFFA0F4B4D
:4006C00000221A70104B00221A7005E00B4B01221A700D4B01221A700B4B1B78181C00F011FCBD4680BDC046EC0F002026210020AD0B00202921002028210020AF0B0020F3
:40070000A84E010020210020AE0B0020D44E010090B585B000AF62B6012000F0CDFB012001F032FA012000F0EDFB7E4B181C00F02BFC7D4B181C01F04DFA7C4B181C00F0E1
:40074000BBFD7B4B181C00F081FE0823FB1801225A700823FB1807221A700E23FC180823FB18181C05F098F9031C2380FFF7D6FE0E23FB181B88002B11D10823FB181B78AE
:40078000181C00F059F9031CDAB2FB1D1A70FB1D1B785BB2674A101C191C02F0F3F900F0CFFA03F0BBF9644B1B78022B15D0624B1B78032B11D0614B1B78012B0CD1002063
:4007C00000F078FC031E03D15D4B181C02F056FA5A4B00221A7064E063E0584B1B78012B5FD1554B1B78022B04D10823FB1801225A7007E0504B1B78032B03D10823FB1863
:4008000000225A700823FB18181C05F01BF90823FB18181C00F056F90E23FC180823FB18181C05F039F9031C23800E23FB181B88002B33D10823FB18181C05F003F908235C
:40084000FB181B78181C00F0F7F8031CDAB2FB1D1A70FB1D002001211A1C00F075FE394B1B78DBB2002B11D0374BFC1D1A785B781B021A4300231204120C1B0C1B04134362
:40088000181C00210122231C00F09EFEFB1D1B785BB2284A101C191C02F074F9274B00221A70FFF791FE244B1B78012B39D00D23FC18032003F026F9031C237072B60C23AF
:4008C000FC1805F0B7F8031C23700D23FB181B78032B1ED10C23FB181B78042B04D00C23FB181B78062B1BD100F05CFA011C174B1A6880231B02134001D0012300E000237F
:40090000CB18002B02D101F02FFB09E001F012FB06E00C23FB181B78022B01D001F00AFB62B63EE7A50200000505000051090000DD090000004F010034210020ED0F002016
:40094000244F0100EE0F00203C2100200802244080B584B000AF786039607A68BC23FF339A422CD1174B181C02F088F93B68FB60FB685B689B88012B21D1FB685B681B688F
:400980001A78114B1A70104B1B78012B08D0022B0BD0002B0ED10D4B181C02F06FF90EE00B4B181C02F06AF909E00A4B181C02F065F904E0084B181C02F060F9C046BD4687
:4009C00004B080BD504F0100292100207C4F0100A84F0100D84F01000850010080B582B000AF786039607B68E83BFF3B052B14D89A000D4BD3181B689F460C4B181C02F012
:400A00003DF90B4B01221A700AE00A4B181C02F035F9074B00221A7002E0C04600E0C046BD4602B080BDC0467850010040500100EE0F00205C50010080B584B000AF021CCC
:400A4000FB1D1A700F23FB1800221A70FB1D1B78082B2CD89A001A4BD3181B689F460F23FB18EE221A7023E00F23FB18F4221A701EE00F23FB18FA221A7019E00F23FB18C1
:400A8000FD221A7014E00F23FB18FE221A700FE00F23FB18FF221A700AE00F23FB1800221A7005E00F23FB1803221A7000E0C0460F23FB181B785BB2181CBD4604B080BD24
:400AC0009050010080B582B000AF78607B681B78082B24D89A00144BD3181B689F467B6808221A701CE07B6801221A7018E07B6802221A7014E07B6803221A7010E07B6831
:400B000004221A700CE07B6805221A7008E07B6806221A7004E07B6807221A7000E0C046BD4602B080BDC046B450010080B586B000AFF860B9607A6000237B6109E0BB683B
:400B40005A1CBA601B78181C00F016F97B6901337B617A697B689A42F1DB7B68181CBD4606B080BD80B500AFFEE7C04680B584B000AF7860104B1A687B68D3181A1C0F4BB6
:400B8000D21A8023DB009A4209DC0B4B1B68FB60094B1A687B68D218074B1A6007E001F0A5FF031C0C221A6001235B42FB60FB68181CBD4604B080BDB00B00204821002019
:400BC00080B586B000AF224B7B61224B3B61204B7B6135E03B691B68FB603B695B68BB603B699B683B6000237B600CE0FB681A68BB681A60BB680433BB60FB680433FB6011
:400C00007B6804337B607A683B689A42EED13B69DB683B6000237B6008E0BB6800221A60BB680433BB607B6804337B607A683B689A42F2D13B6910333B617B69013B7B616B
:400C40007B69002BC6D101F057FFFFF761FDFEE7010000002055010080B582B000AF154B144A126801218A431A6000237B600FE07B68032B04D8104B7A689200D35800E06C
:400C80000E4B0F4A796889008B507B6801337B607B682F2BECD9FFF727FA0A4B00221A60044B044A126801210A431A60BD4602B080BDC0460000104000000000650B000089
:400CC00000000020C000002080B582B000AF786039607A683B68101C00211A1C01F04AFFBD4602B080BDC04680B500AF054B03221A60054B03221A60044B00221A60BD4683
:400D000080BDC0463000304030003140000E3F4080B500AF00F056F8BD4680BD80B500AF064B064A1268802109060A431A6000F019F800F01BF8BD4680BDC046000024401C
:400D400080B500AF064B1B78002B04D1FFF7E0FF034B01221A70FFF7E1FFBD4680BDC046F00F002080B500AFBD4680BD80B500AF00F088F8BD4680BD80B582B000AF7860FA
:400D8000C046064B1B681F221340082BF9D0044B7A681A60BD4602B080BDC046080224404002244080B582B000AF054B1B681F2213407B607B68181CBD4602B080BDC046AB
:400DC0000802244080B500AF1B4B1C4A1A601C4B00221A601B4B01221A601B4B1B4A1A601B4B07221A601B4B00221A601A4B01221A601A4B154A1A60194B00221A60194B61
:400E000004221A60184B00221A60184B00221A60174B00221A60174B00221A60164B00221A60164B00221A60144B1B689AB2144B1A80BD4680BDC046000024400F0000023C
:400E400040002440480024400003244007000080040324401003244044002440000224400402244050002440880E2440C80E2440480F2440080F2440C80F2440880F244086
:400E8000F20F002080B500AF074B074A126807490A40902109040A431A60054B054A12881A60BD4680BDC04600010240FFFF0FFF880F2440F20F002080B584B000AF021C57
:400EC000FB1D1A700E4B1B68DAB20F23FB1840218A431A70FB1D1B789B01DBB240221340D9B20F23FB180F22BA1812780A431A70034B0F22BA1812781A60BD4604B080BDE5
:400F00000002044080B584B000AF021CFB1D1A700D4B1B68DAB20F23FB187F210A401A70FB1D1B78DB01D9B20F23FB180F22BA1812780A431A70044B0F22BA1812781A6062
:400F4000BD4604B080BDC0460003044080B500AF064B00221A70064B00221A70054B00221A7000F009F8BD4680BDC0463F210020382100203E21002080B500AF00F098F942
:400F800000F060FABD4680BDB0B594B004AF78603E23FB1800221A802823FA183E4B111C1A1C1423081C111C1A1C01F0DAFD3B4B1B78002B04D1FFF7C9FF384B01221A706D
:400FC0007B68002B5CD0364B7A681A603E23FB181B88002B29D11023FB181C22BA185A601023FB182022BA181A601023FB1800221A812023FB181B221A802023FB181B22F7
:401000005A802023FB1804221A711C23FB1800221A703E23FC181023FA180E23FB18101C191C02F051FE031C23803E23FB181B88002B29D13E23FC181A481B49AE231A010C
:401040002823FD180523009300230193002302932B1C02F095FD031C23803E23FB181B88002B11D1114B01221A703E23FC18104B181C122112220EF04DFF031C238003E0D2
:401080003E23FB1801221A803E23FB181B88181CBD4610B0B0BDC046E4500100F40F00202C21002041180000C8000020342100200051010090B585B000AF021CFB1D1A70C8
:4010C000FB1D1B78022B04D90E23FB1801221A804BE0294B1B78042B42D1284B1B78DBB21A1C042313403BD1FB1D1B78002B0BD1234B1E221A82224B5B6820221A80204B04
:401100005B6830225A8010E0FB1D1B78012B0CD11B4B96221A821A4B5B68C822D2001A80174B5B688022D2015A80164BFA1D12781A700E23FC18124B181C0DF015F8031CE5
:4011400023800E23FB181B88002B08D10B4B1B78DBB204221343DAB2084B1A7005E004E00E23FB180422FF321A800E23FB181B88181CBD4605B090BD342100203F21002073
:40118000E40B00203E21002080B584B000AF78600A1CFB1C1A700023BB60BB68002B20D07B689A79BB681A700F23FB1800221A7012E00F23FB181B780133BA68D3180F229E
:4011C000BA18127879688A5C1A700F23FB181A780F23FB1801321A700F23FB181B78052BE7D9BD4604B080BD80B582B000AF78607B681B789AB27B6801331B789BB21B02E9
:401200009BB213439BB2181CBD4602B080BDC04690B585B000AF78600F23FB1800221A707B689B890B22934237D17B681A1D7B680F217C18101C00211A1C40230EF0B8FE34
:40124000031C23700F23FB181B78002B1DD17B685B68181CFFF7C8FF031C1A1C022313409BB2002B08D0104B1B68822251007A68081C111C984708E00B4B1B680622FF3218
:40128000111C7A68081C111C9847084B1B78DBB201229343DAB2054B1A700F23FB181B78181CBD4605B090BD2C2100203F21002080B500AFBD4680BD80B582B000AF78600D
:4012C000024B7A681A60BD4602B080BD1810002080B584B000AF0F23FB1800221A700E223B1C1A813B1C01229A803B1C0F22BA181A603B1C181C0021002200230EF058FE33
:40130000BD4604B080BDC04690B587B000AF78601723FB1800221A702A4B1B68002B49D00E227B689B899A4244D17B685B681B78022B33D87B681B89012B2AD17B681A1D1A
:401340007B6817217C18101C00211A1C40230EF02FFE031C23701723FB181B78002B21D10C23FB187A6812881A800C23FB1800229A707B681A1D0C23FB185A60114B1B6843
:40138000BC22FF32111C0C22BA18081C111C984708E01723FB180D221A7003E01723FB18FF221A70084B1B78DBB201229343DAB2054B1A701723FB181B78181CBD4607B058
:4013C00090BDC046181000203F21002080B586B000AF3A60FB1D021C1A70BB1D0A1C1A701623FB1801221A803B68002B22D0FB1D1B78002B1ED1BB1D1B78012B1AD10E2296
:401400000823FB181A81BB1D1B789AB20823FB189A800823FB183A681A600823FB18181C002100220EF08EFD031E03D11623FB1800221A801623FB181B88181CBD4606B053
:4014400080BDC04680B500AFBD4680BD80B582B000AF7860024B7A681A60BD4602B080BD1C10002090B587B000AF78601723FB1800221A70F4235B003B61304B1B68002BFD
:4014800054D07B689B89122293424FD111235A1E2B49131C9B009B189B00CB185A6880235B01134036D07B685B68181CFFF79CFE031C1A1C012313409BB2002B02D0E82318
:4014C000FF333B617B681A1D7B6817217C18101C00211A1C40230EF06BFD031C23701723FB181B78002B19D10823FB187A6812881A800823FB1800229A700823FB18002244
:401500005A600E4B1B6839690822BA18081C111C984703E01723FB1806221A70094B1B78DBB201229343DAB2064B1A701723FB181B78181CBD4607B090BDC0461C10002024
:40154000005101003F21002080B586B000AF3A60FB1D021C1A70BB1D0A1C1A701623FB1801221A80FB1D1B78002B25D13B681B785BB2032B20DC3B681B785BB212331BDBDD
:4015800011220823FB181A81BB1D1B789AB20823FB189A800823FB183A681A600823FB18181C0021002200230EF002FD031E03D11623FB1800221A801623FB181B88181CC1
:4015C000BD4606B080BDC04690B589B000AF0C243C192080081C111C7B600B23FB18021C1A700A23FB180A1C1A701E23FB1801221A807B68002B53D00B23FB181B78002B57
:401600004ED10A23FB181B78012B49D112235A1E2749131C9B009B189B00CB1808339B685B68181CFFF7E0FD031C1A1C012313409BB2002B2FD011221023FB181A811023C8
:40164000FB187A681A600A23FB181B789AB21023FB189A801023FB18181C0021002200230EF0A6FC031E1BD1124B1B78022B05D01E23FB180422FF321A8011E01E23FC1872
:401680000C23FB181022BA181868111C0DF0CCFE031C238004E01E23FB18802252001A801E23FB181B88181CBD4609B090BDC046005101003421002090B585B000AF7860E6
:4016C0000F23FC187B68181CFFF7A2FD031C2370284B1B78DBB21A1C012313400CD00F23FB181B78002B07D10F23FC187B68181CFFF70AFE031C23701E4B1B78DBB21A1C83
:40170000012313400CD00F23FB181B78002B07D10F23FC187B68181CFFF7A4FE031C2370144B1B78DBB21A1C012313401FD10F23FB181B78002B16D00823FB1812229A7053
:401740007B689A890823FB181A800823FB180F22BA181278DA707B680822BA181868111C0DF024FE03E07B6818680DF0B3FEBD4605B090BD3F21002080B582B000AF786064
:40178000BD4602B080BDC04680B500AF034B00225A70024B00221A70BD4680BD3C21002080B582B000AF7860BD4602B080BDC04680B500AFFFF78CFDBD4680BD80B584B06B
:4017C00000AF78600E23FB1800221A707B689B79002B1CD10F23FB1800221A7012E00F23FB181B787A68D35C002B04D00E23FB1801221A700BE00F23FB181A780F23FB18A0
:4018000001321A700F23FB181B78052BE7D90E23FB181B78181CBD4604B080BD80B582B000AF021CBB1D1A80BD4602B080BDC04680B582B000AF7860BD4602B080BDC046A0
:4018400080B588B000AF021C3960FB1D1A70BF4B1B78DBB201221343DAB2BC4B1A70FB1D1B78712B00D956E19A00B94BD3181B689F461023FB1807221A701023FB1800228A
:401880005A701023FB18181C04F006F91023FB1807221A701023FB1801225A701023FB18181C04F0F9F8AB4B1B68181CFFF786FF031E11D0A74B1B68181C02F033F9A54B85
:4018C0001B68181C0021FFF75FFCA24B1B68181C0121FFF759FC36E09F4B1B781A1C3F231A409E4B1B78191C3F230B409B011A439B4B1B78191C1F230B401B031A43994B38
:401900001B78191C7F230B405B041343BB61BB69DAB2954B1A70BB691B0ADAB2924B5A70BB691B0CDAB2904B9A708F4B181C02F0F9F88D4B181C0021FFF726FC8A4B181C90
:401940000121FFF721FC03200CF0BEFA0C23FB183F221A700C23FB1800225A700C23FB18181C0CF0CFFA814B04221A70D4E03B68181CFFF715FFCFE03B681A787C4B1A707F
:40198000CAE03B687B617B691B78002B18D17B695B78002B0BD1774B0022DA80754B00229A80744B744A1A607B69724A5A60674B1B78DBB201229343DAB2644B1A70ABE00F
:4019C000AAE0624B1B78DBB21A1C2023134016D16A4B1B78102B02D1684B0522DA70684B1A78664B101C191C0CF07EFB574B1B78DBB201221343DAB2544B1A708CE08BE0D0
:401A00003B68181CFFF714FF86E03B68181CFFF70FFF564B02221A707EE0544B04221A707AE0524B1B78022B34D0484B1B78DBB21A1C012313402DD0444B1B78DBB21A1C8C
:401A4000042313400BD0494B03221A703F4B1B78DBB204229343DAB23C4B1A701AE03B4B1B78DBB21A1C082313400BD03F4B04221A70364B1B78DBB208229343DAB2334B77
:401A80001A7007E0394B1B78032B03D1374B04221A7041E040E03B681B88181CFFF7BEFE3AE0374A3B68111C1A1C0223081C111C1A1C01F056F82E4B00221A70FFF778FEE0
:401AC0002AE0FFF761FE27E03B685B88162B05D81E23FB183A6852881A8003E01E23FB1817221A803B681E22BA1811881A8800231204120C1B0C1B041343181C0DF060FCF8
:401B00000AE03B68181CFFF7D7FD05E03B68181CFFF732FE00E0C0460C4B1B78DBB21A1C112313400FD0094B1B78DBB201229343DAB2064B1A70134B1B68FA1D11783A6848
:401B4000081C111C9847BD4608B080BD3F21002068520100000C00207CF1FF0F7DF1FF0F7BF1FF0F78F1FF0FF80B0020342100203821002020100020A80B0020680C002026
:401B80003C2100202C21002080B584B000AF021CFB1D1A700E4B1B68DAB20F23FB1840218A431A70FB1D1B789B01DBB240221340D9B20F23FB180F22BA1812780A431A7041
:401BC000034B0F22BA1812781A60BD4604B080BD0003044080B582B000AF786000F04AF87B68181C00F008F8032000F011F800F037F8BD4602B080BD80B582B000AF786013
:401C0000024B7A689A64BD4602B080BD0000002090B585B000AF021CFB1D1A701623FB600B23FC1800F0A9F8031C23700A4B0A4A12680A491140FA1D1078FA689040021CAD
:401C40000A431A600B23FB181B78181C00F099F8BD4605B090BDC04600E400E0FFFF3FFF80B500AF024B04221A60BD4680BDC04600E100E080B500AF024B04221A60BD465D
:401C800080BDC04680E100E080B582B000AF094B1B68DAB2FB1D7F218A431A70054BFA1D12781A60FB1D1B78DB09DBB2181CBD4602B080BD1002044080B582B000AF786027
:401CC00000F048F87B68181C00F008F8032000F011F800F035F8BD4602B080BD80B582B000AF7860024B7A681A66BD4602B080BD0000002090B585B000AF021CFB1D1A70EA
:401D00000623FB600B23FC1800F037F8031C23700A4B0A4A1268C0218A43111CFA1D1078FA689040021C0A431A600B23FB181B78181C00F026F8BD4605B090BD08E400E071
:401D400080B500AF024B802252001A60BD4680BD00E100E080B500AF024B802252001A60BD4680BD80E100E00230800803D00138FDD1C046C046C0467047EFF3108072B6AC
:401D8000704780F31088704790B585B000AF78600F23FC18FFF7F1FF031C2370094B7A6807210A40D104074A1268074802400A431A600F23FB181B78181CFFF7E2FFBD4645
:401DC00005B090BD00010B40FFFFC7FF90B58BB000AF78602723FC18FFF7CFFF031C2370184B1A680C23FB181A60174B1A680C23FB185A607B68033B144AD35C1A1C0C2362
:401E0000FB189A60124B1A680C23FB18DA601C23FB18104A1A600C23FA181C23FB185A600D4B1C22BA181A600C4B0D4A1A600A4B1B682723FB181B78181CFFF7A2FFBD4627
:401E40000BB090BD08010B4000010B403054010030001040B6EA000008001040040010401700008080B584B000AF78600023FB60154B154A126801210A431A60134B144A86
:401E80001A60144B134A1268802109020A431A607B68002B12D01023FB600CE0012000F035F800F019F8031E02D00023FB6005E07B68013B7B607B68002BEFD1FB68181CA1
:401EC000BD4604B080BDC04660F02E4078002E400220000010002E4080B582B000AF054B1B68012213407B607B68181CBD4602B080BDC0460C002E4080B582B000AF021CAD
:401F0000FB1D1A7001BEBD4602B080BD80B582B000AF021CBB1D1A80BB1D1B88044A12785343181CFFF720FFBD4602B080BDC046780C002090B583B000AFFC1DFFF71DFF88
:401F4000031C2370074B074A126804218A431A6030BFFB1D1B78181CFFF713FFBD4603B090BDC04610ED00E090B583B000AFFC1DFFF703FF031C2370114B114A12685200FD
:401F800052081A600F4B104A128892B21A600F4B0E4A126804210A431A600D4B1B683B600220FFF7F1FE30BF094B3A681A60FB1D1B78181CFFF7E5FEBD4603B090BDC0468C
:401FC00000000B400C000B4052F1FF0F10ED00E000010B4080B500AF0E4B0E4A126801218A431A600B4B0B4A126802218A431A60094B094A126830218A4310210A431A6087
:40200000054B054A126807218A4301210A431A60BD4680BD00F02E4000FF2E4080B500AF0E4B0E4A126802218A431A600C4B0C4A126807218A4302210A431A60084B084A7A
:40204000126830218A4320210A431A60034B034A126801210A431A60BD4680BD00F02E4000FF2E4080B500AFFFF7B4FF044B044A1268802109060A431A60BD4680BDC04656
:4020800000F02E4080B584B000AF78600C4B1B6801221340FB607B68002B02D0012B03D005E0FFF797FF06E0FFF7B8FF03E00020FFF722FFC046FB68181CBD4604B080BD99
:4020C00000F02E4090B583B000AFFC1DFFF755FE031C2370074B074A1268C02109020A431A60FB1D1B78181CFFF74BFEBD4603B090BDC04600010B4080B500AF054B1A684E
:40210000C0231B02134001D0012300E00023181CBD4680BD00010B4090B583B000AFFC1DFFF72BFE031C23700C4B0C4A12680C490A408021C9010A431A60084B074A12686D
:4021400007490A40802109020A431A60FB1D1B78181CFFF716FEBD4603B090BD00010B40FF3FFFFF80B582B000AF78607B68022B02D90020FFF7C0FE054B1B687A68D200AA
:402180000132D34001221340181CBD4602B080BD10020B4080B584B000AF786039607B68022B02D90020FFF7A7FE7B68181CFFF7D9FF031E15D10C4B1B687A68D200111C0A
:4021C00003228A40D2431340FB603B68032213407A68D2009340FA681343FB60024BFA681A60BD4604B080BD0C020B4080B584B000AF786039607B68002B02D07B68012B8A
:4022000001D1012300E00023002B02D10020FFF773FE7B68181CFFF7A5FF031E16D10D4B1B687A68D2000232111C01228A40D2431340FB607B68DB0002331A1C3B68934028
:40224000FA681343FB60034BFA681A60BD4604B080BDC0460C020B4080B582B000AF7860144B144A11687A680A431A607B680122134005D0C0460020FFF774FF031EFAD059
:402280007A6880235B00134005D0C0460120FFF769FF031EFAD07A6880235B02134005D0C0460220FFF75EFF031EFAD0BD4602B080BDC04610020B4080B584B000AF7860F1
:4022C00039607B68002B02D07B68012B01D1012300E00023002B02D10020FFF70DFE174B1B689B0F9B0701D1C92300E05D23181CFFF70CFE124B1B68FB607B681B011A1C4B
:40230000104B9340DA43FB681340FB600C4B7A681201111C3A688A40111CFA680A431A60064B1B689B0F9B0701D1432300E01F23181CFFF7EBFDBD4604B080BD0C020B402D
:4023400008020B40FFFF000080B500AF034B1B68034A1340181CBD4680BDC04610020B400404040090B585B000AF78600B23FC18FFF703FD031C2370FFF7BEFE031E04D040
:402380000123FB60FFF7C8FE01E00023FB607B680D4A13407B600D4B0C4A12680C4911407A680A431A60094B1B68FB68012B01D1FFF788FE0B23FB181B78181CFFF7E1FC15
:4023C000BD4605B090BDC0460404040010020B40FBFBFBFF80B582B000AF7860084B084A11687A68074802400A431A60C046044B1B68044A1340FAD1BD4602B080BDC046F7
:4024000010020B400808080080B582B000AF78600A1CBB1C1A80BB1C1A887B681A60BD4602B080BD80B582B000AF78600A1CBB1C1A80BB1C1A887B681A60BD4602B080BD8D
:4024400080B584B000AF494B1B78DBB21B02484A1278D2B21343FB60464B1B78DBB21B02454A1278D2B21343BB60BB68434A934207D1FB68072B04D1414BBB600423FB6056
:4024800009E0BA68D4231B019A4204D1FB68042B01D13B4BBB603B4BBA681A603A4BFA681A603A4B1B78DBB21B02394A1278D2B21343FB60FA6880239B019A4202D0FB680F
:4024C000002B01D1334BFB60334BFA681A60334B1B78DBB21B02324A1278D2B21343FB60FB68304A934206D0FB682F4A934202D0FB68052B01D12D4BFB602D4BFA681A601F
:402500002C4B1B681B097B602B4B1B68AA2B29D17B68012B26D9214B1B78DBB20E2B21D1264B1B78DBB29BB21B0299B2244B1B78DBB29AB2BB1C0A431A80224BBA1C128859
:402540001A60214B1B78DBB29BB21B0299B21F4B1B78DBB29AB23B1C0A431A801C4B3A1C12881A60BD4604B080BDC046D9F0FF0FD8F0FF0FDFF0FF0FDEF0FF0F580B0000F8
:40258000580D00006C002E4074002E40DBF0FF0FDAF0FF0F0220000078002E40DDF0FF0FDCF0FF0F0F0F000005050000050F000080002E40EC0F00F0E00F00F06DF2FF0F2B
:4025C0006CF2FF0F84002E406FF2FF0F6EF2FF0F94002E4080B582B000AF021CBB1D1A80BB1D1B88181CFFF791FCBD4602B080BD80B500AF00F0DEF8BD4680BD80B500AF06
:4026000000F0E2F8BD4680BD80B500AF00F0DCF8044B181C00F09CF8032000F0A5F8BD4680BDC046DD27000080B500AF024B181C00F07CF8BD4680BDDD27000080B500AFF6
:402640000223FF33181CBD4680BDC04680B582B000AF78602B23181CBD4602B080BDC04680B582B000AF78602B23181CBD4602B080BDC04680B582B000AF78602B23181C49
:40268000BD4602B080BDC04680B582B000AF78602B23181CBD4602B080BDC04680B582B000AF78602B23181CBD4602B080BDC04680B582B000AF78602B23181CBD4602B02D
:4026C00080BDC04680B582B000AF78602B23181CBD4602B080BDC04680B582B000AF78602B23181CBD4602B080BDC04680B500AF2B23181CBD4680BD80B582B000AF021CED
:40270000FB1D1A702B23181CBD4602B080BDC04680B582B000AF786039602B23181CBD4602B080BD80B500AFBD4680BD80B582B000AF786000F048F87B68181C00F008F839
:40274000032000F011F800F035F8BD4602B080BD80B582B000AF7860024B7A681A67BD4602B080BD0000002090B585B000AF021CFB1D1A700623FB600B23FC18FFF7FDFAE2
:40278000031C23700A4B0A4A1268C0218A43111CFA1D1078FA689040021C0A431A600B23FB181B78181CFFF7ECFABD4605B090BD0CE400E080B500AF024B802252011A605A
:4027C000BD4680BD00E100E080B500AF024B802252011A60BD4680BD80E100E080B500AF12F046FABD4680BD002243088B4274D303098B425FD3030A8B4244D3030B8B42F9
:4028000028D3030C8B420DD3FF22090212BA030C8B4202D31212090265D0030B8B4219D300E0090AC30B8B4201D3CB03C01A5241830B8B4201D38B03C01A5241430B8B422B
:4028400001D34B03C01A5241030B8B4201D30B03C01A5241C30A8B4201D3CB02C01A5241830A8B4201D38B02C01A5241430A8B4201D34B02C01A5241030A8B4201D30B026C
:40288000C01A5241CDD2C3098B4201D3CB01C01A524183098B4201D38B01C01A524143098B4201D34B01C01A524103098B4201D30B01C01A5241C3088B4201D3CB00C01A63
:4028C000524183088B4201D38B00C01A524143088B4201D34B00C01A5241411A00D20146524110467047FFE701B5002000F0FCF802BDC0460029F7D003B5FFF775FF0EBC28
:402900004243891A1847C04603460B437FD4002243088B4274D303098B425FD3030A8B4244D3030B8B4228D3030C8B420DD3FF22090212BA030C8B4202D31212090265D004
:40294000030B8B4219D300E0090AC30B8B4201D3CB03C01A5241830B8B4201D38B03C01A5241430B8B4201D34B03C01A5241030B8B4201D30B03C01A5241C30A8B4201D387
:40298000CB02C01A5241830A8B4201D38B02C01A5241430A8B4201D34B02C01A5241030A8B4201D30B02C01A5241CDD2C3098B4201D3CB01C01A524183098B4201D38B01E7
:4029C000C01A524143098B4201D34B01C01A524103098B4201D30B01C01A5241C3088B4201D3CB00C01A524183088B4201D38B00C01A524143088B4201D34B00C01A524132
:402A0000411A00D201465241104670475DE0CA0F00D04942031000D34042534000229C4603098B422DD3030A8B4212D3FC22890112BA030A8B420CD3890192118B4208D378
:402A4000890192118B4204D389013AD0921100E08909C3098B4201D3CB01C01A524183098B4201D38B01C01A524143098B4201D34B01C01A524103098B4201D30B01C01AD7
:402A80005241C3088B4201D3CB00C01A524183088B4201D38B00C01A5241D9D243088B4201D34B00C01A5241411A00D20146634652415B10104601D34042002B00D549421A
:402AC000704763465B1000D3404201B5002000F00BF802BD0029F8D003B5FFF715FF0EBC4243891A1847C0467047C046014B18687047C046CC0F00200E4B70B500251E1C06
:402B00000D4CE41AA410A54204D0AB00F35898470135F8E712F0F2FC084B00251E1C084CE41AA410A54204D0AB00F35898470135F8E770BD08550100085501000855010051
:402B40001055010030B50024944208D0035D651C0C5DA34201D0181B02E02C1CF4E7002030BD002310B5934203D0CC5CC4540133F9E710BD031C8218934202D01970013325
:402B8000FAE770470FB40B4B13B51C68002C05D0A369002B02D1201C00F03EFA05AB201CA168049A019300F0E7FB16BC08BC04B01847C046CC0F002070B5051C0E1C00286E
:402BC00004D08369002B01D100F026FAAC68A3891B0702D52369002B19D1281C211C00F0AFF8002813D00120404245E03178002B1BDAA269934211DA221C281C00F048F8FD
:402C0000013042424241D0B20028ECD10136A3683278013BA360002AE8D10CE023681970236819780A2903D1E6E723681970236801332360EAE7002B17DAA269934208DBF1
:402C40000A2322681370236819780A2911D1281C01E0281C0A21221C00F01AF8013042424241D0B2002806D0BDE70A23226813702368013323600A2070BD000008B5034BDB
:402C8000011C1868FFF798FF08BDC046CC0F002070B5051C0E1C141C002804D08369002B01D100F0B9F9234B9C4201D16C6808E0214B9C4201D1AC6803E0204B9C4200D1F6
:402CC000EC68A369A360A3891B070AD52369002B07D023682269F6B2981A636998420FDB08E0281C211C00F02BF80028F1D0012040421DE0281C211C00F020F90028F6D138
:402D0000A3680130013BA36023685A1C22601E706369984205D0A389301CDB0708D50A2E06D1281C211C00F009F90028DFD1301C70BDC0466854010088540100A8540100E5
:402D4000354B70B51D68061C0C1C002D05D0AB69002B02D1281C00F05FF9304B9C4201D16C6808E02E4B9C4201D1AC6803E02D4B9C4200D1EC68A3899AB2110723D4D1065F
:402D800007D409220120326037321343A381404240E0530713D5616B002908D0231C4433994202D0301C00F021FA002363632422A3899343A3810023636023692360082298
:402DC000A3891343A3812369002B0BD1A023A2899B00134080229200934203D0301C211C00F0ACF90123A289134005D00023A36063695B42A36103E0910700D46369A3609C
:402E000000202369834205D1130603D540231A43A281013870BDC046CC0F00206854010088540100A8540100F7B58A89051C0C1C13075ED44B68002B02DC0B6C002B1ADDD0
:402E4000E76A002F17D000232E682B6080235B011A4001D0626D15E0281C216A0123B847021C431C0ED12B68002B0BD01D2B01D0162B02D12E6000205EE04021A3890B43DE
:402E8000A38159E0A3895B0706D56368D21A636B002B01D0236CD21A0023281C216AE76AB847A389421C06D12A68002A03D01D2A01D0162A19D10022626022692260DB040C
:402EC00005D5431C02D12B68002B00D16065616B2E600029CFD0231C4433994202D0281C00F084F90020606326E040221343A38122E00F69002FBED00B680F60DB1B0193D4
:402F00000023920700D14B69A360019B002BB2DD281C216A3A1C019BA66AB047002806DC40220120A38940421343A38104E0019B3F181B1A0193E8E7FEBD000038B50B69EF
:402F4000051C0C1C002B01D100201CE0002804D08369002B01D100F05FF80B4B9C4201D16C6808E0094B9C4201D1AC6803E0084B9C4200D1EC680C22A35E002BE4D0281C5E
:402F8000211CFFF751FF38BD6854010088540100A854010008B5024900F0AEF808BDC0463D2F0000002310B5041C03604360836081814366C281036143618361191C082203
:402FC0005C30FFF7D7FD054B24626362044BA362044BE362044B236310BDC046C9380000F1380000293900005539000070B568254B1E5D430E1C291C743100F03DF9041E1F
:4030000008D000212A1C016046600C30A0606832FFF7B0FD201C70BD836913B5002B28D18364C3640365134B134A1B6882620193984201D101238361041C00F01FF86060C9
:40304000201C00F01BF8A060201C00F017F80421E06000226068FFF7A5FFA06809210122FFF7A0FFE06812210222FFF79BFF0123A36113BD64540100952F0000F8B51D4B4A
:40308000061C1D68AB69002B02D1281CFFF7C4FF4835AC686B68013B05D40C22A75E002F10D06834F7E72B68002B06D1301C0421FFF79CFF2860002801D02D68E9E70C2379
:4030C000336016E00123201C5B42E3810233A38167662760A760676027616761A7615C30391C0822FFF746FD201C6763A763A764E764F8BD64540100F7B5041C071C0026E6
:4031000001914834002C16D06368A5680093009B013B00930DD4AB89012B08D90E22AB5E013304D0381C291C019B984706436835EDE72468E6E7301CFEBD0000F0B58B8950
:4031400091B09B0706D50B1C47330B600B6101234B6145E00C1C0E23C95E061C002904DA8023A5891D4010D10CE001AA00F01EFC0028F5DBF023029D1B021D40194BED183E
:403180006B425D418027FF0001E000254027301C391C00F071F800280CD1A3899A051FD402221343A381231C4733236023610123636115E080220C4BB362A38920601343A9
:4031C000A38120616761002D0AD00E23E15E301C00F0FEFB002803D00122A3891343A38111B0F0BD00E0FFFF952F000030B500293ED004390B68002B00DAC9181D4A13684E
:40320000141C002B02D14B60116031E099420DD208680A189A4203D11368C3180B6053684B60216024E08A4203D8131C5A68002AF9D11D685C198C420BD1096869185818F9
:403240001960904214D110685268091819605A600EE08C4202D90C23036009E008680C18944203D114685268001908604A60596030BDC0461C210020032370B5CC1C9C43CC
:403280000834051C0C2C01D20C2405E0002C03DA0C2300202B6042E08C42F9D3204A1368101C191C002913D00A68121B0DD40B2A02D90A608B181FE08B4202D15A68026040
:4032C0001BE04A685A600B1C17E00B1C4968E9E7144E3368002B03D1281C00F0E3FA3060281C211C00F0DEFA031C421CD0D00322C61C964386420AD11C60181C07210B3008
:403300001A1D8843821A0AD05142995007E0311A281C00F0C7FA431CBAD0331CECE770BD1C21002018210020936810B5013B9360002B05DA9469A34208DBCBB20A2B05D03F
:403340001368581C10601970C8B201E0FFF7A0FC10BDF8B5061C0F1C141CD518AC4208D02178301C3A1CFFF7DFFF0134431CF5D100E00020F8BD0000F0B59FB0061C0F1C6F
:4033800002920593002804D08369002B01D1FFF743FE794B9F4201D1776808E0774B9F4201D1B76803E0764B9F4200D1F768BB891B070AD53B69002B07D0002306AD6B61B1
:4033C00020336B761033AB763DE0301C391CFFF7B7FC0028F1D001204042CAE0059A111D12680591002A7EDB0992013423782E2B00D189E021786348032200F00FFB0028AF
:4034000008D0604B0134C01A40238340181C2B68184328602178631C5B4806220293297600F0FCFA002800D191E0584B002B00D084E00722059B07339343083305936B6941
:40344000039A9B186B61029C2378002B04D1029BE31A049311D003E0252BF8D00134F3E7049B301C391C029AFFF773FF431C7BD06A69049B944663446B612378002B73D025
:403480000122002352426A6002A95432521801342B60EB60AB601370AB6521783C48052200F0BCFA002809D0394B0134C01A01238340181C2B6818432860EEE72B68DA06CD
:4034C00004D55322202102A8121811701A0704D553222B2102A81218117022782A2A00D17CE7099B05E05242EA60022213432B607BE72278303A092A04D80A214B430134E7
:403500009B18F6E7099371E763782A2B09D1059B02341A1D1B680592002B0DDA01235B420AE0002301342278303A092A04D80A214B4301349B18F6E707935BE705AB009311
:40354000301C291C3A1C134B00E000BF07E005AB0093301C291C3A1C0E4B00F08BF80390039B013300D06AE7BB895B0600D532E70B981FB0F0BDC0466854010088540100B2
:40358000A8540100CE540100D254010000000000C854010053330000F7B5171C01930A698B6800900C1C934200DA131C221C3B6043321278002A01D001333B6023689B06E4
:4035C00002D53B6802333B60062523681D401ED0231C43331B785A1E9341226892061CD53020E1184031C870211C5A1C45310978A21840320233D1700FE0221C01230098B2
:4036000001991932089EB047431C0ED00135E3683A689B1A9D42F0DBDAE7221C009801994332089DA847431C02D10120404220E006232068E1683A6803400025042B03D133
:403640008D1AEB43DB171D40A3682269934201DD9B1AED180027AF420ADA221C0123009801991A32089EB047431CDED00137F2E70020FEBDF0B58BB006920A1C4332079304
:40368000059004920A7E0C1C109B6E2A00D1A8E011D8632A22D009D8002A00D1B2E0582A00D0C2E045310A707C4A4FE0642A1DD0692A1BD0B9E0732A00D1A7E009D86F2AE3
:4036C00029D0702A00D0B0E0202209680A43226037E0752A1FD0782A33D0A6E00E1C1A684236111D196013683370A1E021681A68080606D4490604D5111D19600023D55E03
:4037000002E0111D19601568002D3BDA2D23049A6D42137036E021681A68080606D4490604D51568111D1960ADB202E0111D196015685A4B227E03930A276F2A1DD10827A5
:403740001BE0221C782145321170554A19680392081D226818600D68100602D4500600D5ADB2D30702D520231A4322601027002D03D1202322689A432260231C00224333AA
:403780001A7002E00A27454B03936368A360002B03DB0422216891432160002D02D1049E002B0ED0049E281C391CFFF7A3F8039B013E5B5C281C3370391CFFF715F8051EFE
:4037C000F1D1082F09D12368DB0706D563682269934202DC3023013E3370049B9B1B23612BE009681A68080607D4490605D5111D19601368A28A1A8004E0111D1960136899
:4038000062691A600023049E236116E01A68111D196016680021301C626800F0FFF8002801D0801B6060636803E0261C42363270012323610023049A1370079B0598009323
:40384000211C069B09AAFFF7A7FE431C02D10120404221E0236905980699321C079DA847431CF4D023689B0705D4099BE068984212DA181C10E00025E368099A9B1A9D42F7
:40388000F3DA221C0123059806991932079EB047431CDCD00135EFE70BB0F0BDD9540100EA54010038B50023064C051C081C2360FDF75CF9431C03D12368002B00D02B6013
:4038C00038BDC0464021002038B50C1C0E25495F00F0B0F8002803DB636D1B18636503E0A289024B1340A38138BDC046FFEFFFFFF8B51E1C8B89051C0C1C171CDB0505D509
:403900000E23C95E0022022300F074F8A289054B281C1340A3813A1C0E23E15E331C00F01FF8F8BDFFEFFFFF38B50C1C0E25495F00F060F8A389421C03D1054A1340A3813D
:4039400004E0802252011343A381606538BDC046FFEFFFFF08B50E23C95E00F015F808BD38B5051C0020074C2060081C111C1A1CFDF7DCF8431C03D12368002B00D02B60DD
:4039800038BDC0464021002038B50023064C051C081C236000F062F8431C03D12368002B00D02B6038BDC0464021002038B50023064C051C081C111C236000F057F8431C62
:4039C00003D12368002B00D02B6038BD4021002038B50023064C051C081C236000F04EF8431C03D12368002B00D02B6038BDC0464021002038B5051C0020074C2060081C27
:403A0000111C1A1C00F042F8431C03D12368002B00D02B6038BDC04640210020C9B28218904204D003788B4202D00130F8E700207047000038B5051C0020074C2060081C58
:403A4000111C1A1C00F02AF8431C03D12368002B00D02B6038BDC0464021002058220120014B40421A6070474021002058220120014B40421A607047402100205822024B14
:403A800000201A607047C0464021002058220120014B40421A6070474021002058220120014B40421A60704740210020134A1088810703D08107890F401A001D1179103047
:403AC000484381B25088820703D08207920F801A001D800040180A494030098980B2CA0701D0503080B2890706D504495422091F09785143081880B270470000860C00201A
:403B00002810002010B501F0FDFE10BD10B501F00FFF10BD10B501F013FF10BD10B500F04FFA10BD10B50749044609780220002907D1204601F04CFF002802D120460AF0BE
:403B4000B9FA10BDF00D002070B504460120002C12D02368002B0FD0616800290CD0074D06222889208118462968FEF7FAFF6968606809780170002070BD000028100020CC
:403B8000FFB585B0002768460E9D07734C481C460078002802D0082009B0F0BD10990F9801900095029105A807C800F0FBF80028F2D16946264603AB84460873002C19D0B6
:403BC000002115E08A00B75A082F09D990198078002805D0083FB7521878401C187005E0002915D00027B75290198770491CC9B2A942E7D360460028CED10F9800280AD03B
:403C0000109901F033FA0006000E04D00120C3E701208446EEE701F08BFE2948002101610C300599016021888180022D03D3A1798171A17AC17100211EE0481C19E082009B
:403C40008B00A75AE65ABE46BE4211D26F463E80B4461E190296B678BE7001967646E6521719029EBB78B3706646A652019EBE70401CA842E3D3491CA942DED311480090F1
:403C80006846037B22460799069800F013F9002882D168460A4C007B60700A4801F078FE0028B4D1204607490C3007F02DFA0028ADD107F047FA0028A9D1012121706BE771
:403CC000800C002028100020F8B5054633480E460078002802D002242046F8BD002E5BD000242F49002D16D02A89D0070DD02868002808D003881B3BE12B04D24088FB2899
:403D000001D81B2801D2012409E0900707D56868002804D1F7E70020088108604860002CDAD11F482F8907811C481B21801D018041800421017119490020891C0870F8077D
:403D400005D016480622801D2968FEF70AFF1449B80703D56A681148127882700F480D46801D0860001F486001F058FE0B48801D01F046FE28890DF0C9F928890DF030FBF6
:403D800003461033FFF792FE1F21C018890140180249308088809FE701249DE7800C002028100020FFB58446384F1C460020BB883F78054602460646002F11D100290ED049
:403DC000029999420BD36146002908D0002C06D00A99002906D02E4B0B99994202D2012004B0F0BD002144E0AB001F19BF78002F3BD0E35A002B38D07B43591889B22B0037
:403E000000F04AF8050410161C253100A7782388BC46FF27233BEB37BB4222D26346032B1FD322E0A388002B1FD0302B19D31CE02389002B19D0282B13D316E0A289002AB5
:403E400013D01346134F233BBB420AD20DE0268A002A0AD033460F4F233BBB4201D2964203D901200EE0002001E000280AD16D1CEDB2099B9D42B7D31C2463435B180299D7
:403E80008B42ACD89642AAD8AAE70000800C002079020000BAFF000030B47446641E2578641CAB4200D21D46635D5B00E31830BC18470000FFB583B0002469460C801F467B
:403EC00006468C80002806D00598002803D004983043800701D0012467E0002FFBD03449049809888842F6D3FEF79EFBFEF786FB00F010FC002856D100F06CFD002852D1D7
:403F00002C49084601F0E6F805042D0C4BD12A480499066081800021C18007810C98007AC00704D0684601F01CFD040007D10C98007A800703D501A801F01CFD0446BF1D8E
:403F4000FEB2002C21D13146059800F05DF804001BD10DF053FA0406240E16D16A461088928808368518144AF1B29088D288AEB29319984207D3401B801A80B201F09AFBA0
:403F8000050007D000E0FF25012400F05BFA002D04D008E0F8B200F01BF9F6E700F07EFA06490120087000F0C7FB204607B0F0BD840C0020F540000034100020940C00206E
:403FC00010B503480078012801D101F015FA10BD940C002070B5084B0446DA889E8800205518B54206D81D68AA182260DA885118D98070BD032070BD341000200148008965
:404000007047000034100020F0B587B007460D4600208900009006916846FFF7DBFF844600285DD1304800990160002117E02E4B88001A680629115406D22C4C041966788F
:4040400082185670628805E0C419203CA67A8218567022891B68C018491C4280C9B2A942E5D300242DE0601CC2B2059025E01E4FA30039689600581840887118039604901D
:404080004E88B04217D938466F46FE80B6464F786E4677710297049F4F800168039F5E18767879184E700168764659184E800068029F18184770521CD2B2AA42D7D30598F6
:4040C000C4B2AC42CFD36046002809D168460699FFF780FF8446002802D1054900980860604607B0F0BD0000980C0020305501009C0C00207047000010B5002809D0054956
:404100004A68002A05D0011F08788000105801F07FFA10BD980C002010B50446FFF76EFFC0B2801DA0420CD307484068002808D0A100405801F0DEF9002801D00470001D87
:4041400010BD002010BD0000980C0020F8B516460D460446FFF752FFC0B2801DA04203D20020C0430090F8BDB2B2E9B2684601F0E7F90099481C03D0024AA0005268115051
:404180000098F8BD980C0020F8B50746FFF736FF801DC6B20A49002005460C680DE06178002907D06188B94202D32078FFF7B4FF002804D1241D6D1CEDB2B542EFD3F8BDEE
:4041C000980C002010B5002801D0FFF795FF10BD70B506460948002504680BE06178002905D062882078121D0023FFF7AFFF241D6D1CEDB2B542F1D370BD0000980C002044
:40420000FFB581B00A9C16002BD000F0F1F80546042826D0214F002C0BD02046FFF7B4FF2901C919486000281BD022460499FEF798FC1A4928010E50461874810198057076
:404240007D20029CC000444300F0C0F8009004280AD000F055FAA0420ED800F051FA201A06E0FF2005B0F0BD204600F0ADFA0020B08135720020F5E700F042FA074600F041
:40428000B9FA381B87B23846012100F0EFF800980101024808188781E6E7000040100020F8B5060117483418217A042903D0A089002802D018E00020F8BD00F021FA0546BF
:4042C00000F098FA00F0A2F804280DD001010D480F18B88941198DB2002100F0C7F80020B881284600F070FA6068064D002801D0FFF768FF042020720020A8516081A0811E
:40430000D9E7000040100020FEB500266A46304601232549050169180D7A042D02D0898900291BD000211154401CC0B20428F0D300246846005D002830D01B482101081846
:4043400041894768056802910021016041600422418102728181002E02D015E01354E3E700F054F804280ED001010F480818019086890021304600F079F80198002181810A
:40438000304600F021FA0126002D07D038460299A847002F02D03846FFF714FF641CE4B2042CC6D3FEBD0000401000200EB5002005216A46009011815081034869460068A9
:4043C0000DF091FE0EBD0000A00C0020074A0020010189180B7A042B02D08989002903D0401CC0B20428F3D370470000401000200549002002015218127A042A03D0401C47
:40440000C0B20428F6D370474010002030B50A4B04200A4C00210A011219157A042D06D09289002A03D09A4201D808461346491CC9B20429EFD330BDFFFF000040100020AF
:404440007047000030B50020074C05460423020111190B72A5504D60401C4D81C0B28D810428F4D330BD00004010002030B5094C00231A011219157A042D04D095890029F7
:4044800006D02D1895815B1CDBB2042BF1D330BD2D1AF7E740100020002070471CB5002469460C70142001902346054A05480DF01FFE04480068401C00D1FF2420461CBD34
:4044C00019450000A00C00203EB5124A0146FF2000230124126800290DD0012914D0042908D104206946009308814B8110460DF0FAFD80B23EBD6846009304814381694696
:4045000010460DF0EBFDF4E768460093048143816946EBE7A00C002070B545890468416800890300FFF7B8FC08280509091E22282628002005F0FAFC1EE0022908D0C8B2CD
:404540002A4621460BF092FF2046FFF73BFE13E002202A4621460BF089FF2946204600F00DF809E000200DF0ADFA05E02046FFF7CBFE01E0FEF7D6F8002070BD014B0022F4
:40458000DB681847A40C002070B5448905680089022803D0032809D0FF2070BD2246094C0023A46829460120A04708E0FFF7AEFA241DA2B200232946022006F056FC0020BA
:4045C00070BD0000A40C002070470000024800214160018041807047A40C002070B50C46002186B016460391012802D0022859D116E003A9012006F098FC01281BD1039D23
:40460000324621462846FEF7ACFA0095287801900220694608814E816846FFF7B5FF41E0214D002B686809D0049004A9022006F07CFC01281DD0022006B070BD002812D0F2
:40464000298840182146FEF78CFA28880024801980B228806988091D884206D12C801348FFF792FF03E00320E6E788421AD96C6018E004986860E278A378110219430B4AD1
:40468000698000231060E3565360032313815181A1788170E178C1706178417021780170042028800020C7E7A40C0020801000203EB515460C46022803D004280CD00020FF
:4046C0003EBD0091019002206946088107484A8100680DF008FD07E00BF0C8FE044B0022DB6829462046984701203EBDA00C0020A40C0020014AD16090607047A40C002004
:40470000034801688068081A0A214843000970478C10002010B5FDF777FF482204490548FEF71FFA03490120C870002010BD00004C5501009014002010B5FDF759FF10BD72
:4047400070B5134C2368002B08D0207B1149C20705D04008400020738868A08070BD88680B4AA18880B29268814203D90A4D691A091802E0814202D2411A5118A160A080AA
:40478000A0689842EAD30DF0CBFC00F013F870BD8C100020C0102E40FFFF000010B508461946FFF7A7FF10BD704710B5FFF780FF10BD000003480021016041608160C1606D
:4047C000704700008C100020024610B5FF20002A0CD0FFF7EFFF064C0321207B0843207310010A21FEF786F82060002010BD00008C10002000B504480A21806848430209BF
:40480000FFF7D8FF104600BD8C1000200248007B8007C00F704700008C10002010B544490868002802DA434B01221A70022290430860414800693E49C00B4031096A08427C
:404840005ED0012000F0D0FA3B483C497C30FDF7E9FD37480E216C30FDF7E4FD364820218430FDF7DFFD344814219C30FDF7DAFD3148FF21C131A430FDF7D4FD2E48FF213D
:404880002F31B030FDF7CEFD2B482D49BC30FDF7C9FD29482B49AC30FDF7C4FD29492648491CB430FDF7BEFD23482749B830FDF7B9FD21482549CC30FDF7B4FD1E48244964
:4048C0000830FDF7AFFD1C482249A830FDF7AAFD194821498830FDF7A5FD17481F498C30FDF7A0FD14481921C9029030FDF79AFDFDF7A6FDFDF7A2FEC0B2022802D00FE03D
:40490000FF2010BD16491748FDF78CFD15481649001DFDF787FD134800210830FDF782FD54200449C043891C0870002010BD000000F02E40B40C002000002E4055650000A4
:40494000320300002F3F00003102000010520000EC160000FA12000031D000003AE300009956000080012E40F80F000070B50646581C80B245086D00002408E0304600F0AB
:40498000C1F81055000A1119A41C4870A4B2AC42F4D3D80705D0D0182038D15CC47FD454C17770BD30B50A4C002100195B1E07E0541864782502545C2C430480891C89B26A
:4049C0009942F5DB994201D1515C018030BD000000102E4010B5FF2000F006FA0F49FF2048700E481021801D41800121417001700A490020C91C4870FFF710FF04000AD1A6
:404A000000F01AF907210648FDF7FEFC044807211830FDF7F9FC204610BD0000B40C0020CC112E4070B5002405465B1E0AE0284600F068F8010A161971702D1D1055A41CCD
:404A4000ADB2A4B29C42F2DB9C4203D1284600F059F8105570BD000070B500210A4D5B1E0AE0541864782602545C344346193480001D891C80B289B29942F2DB994202D1B4
:404A8000515C4019018070BD00102E40F0B50599091FCFB200217E1E0BE0541864782502545C2C43164D45192C80001D891C80B289B2B142F1DBFC0712D01C78515C2402FB
:404AC0000F4A0C4381180C809C785D78001D210280B2294384182180001D80B2D9780CE059781A7809021143054A84182180001DD9789B78090280B2194380180180F0BD2B
:404B000000102E40014940180088704700102E4010B50B490020487000F08EF8002000F089F9002000F076F907210648FDF76CFC044807211830FDF767FC002010BD00004E
:404B4000B70C0020CC112E4010B506480078012803D102210448FDF765FC02490020C91E087010BDB70C002070F02E4010B50B46062812D006DC01280CD0032801D1FFF773
:404B8000C7FF10BD0A28FCD00B28FAD105480078107010BDFFF71EFF10BD1146184600F065F910BDBA0C0020F8B5204DAC6A0127A0071F4E002816DA307806280ED1286AF3
:404BC000384328621B480069F903084381B219481030FDF727FC042000F006F9134802212830FDF711FCE00711D0062000F0FCF80F49FF20C91E48707078002802D1686B2A
:404C000038436863094801212830FDF7FDFBE0050BD53078042802D1052000F0E5F80348FF2101312830FDF7EFFBF8BD40F02E40B70C002000002E4010B503212348FDF75A
:404C4000F1FB0120FDF7C6FC20483038406A204C80076178800F890001431C480C38FDF7E1FB6078002808D0401E022181401820FDF730FFC000083800E0B82081B215489A
:404C8000FDF7D0FB1348032109021438FDF7CAFB10481149B830FDF7C5FB612189010F48FDF7C0FB0D480321001FFDF7BBFB0C490C48FDF7B7FB0B480B496038FDF7B2FBD5
:404CC000084801218838FDF7ADFB10BD70F02E40BA0C0020D8102E4090890000041E2E40FF0F000058122E4020900000044800684007400F022801D00020704701207047DC
:404D000000010B4000B5FFF7F1FF002805D009480168C908C900016000BD0748016A490849000162054801690122D2039143016100BD000000010B4040F02E4000002E406C
:404D40000849087806280BD148780749002803D1486B400840004863C86A01221043C86270470000B70C002040F02E400148007870470000B70C002002484078022800D005
:404D800001207047B40C002000B50300FFF784F8080D050D0B070507090D012000BD032000BD042000BD022000BDFF2000BD0000074A9168D26889B2064B92B2994204D158
:404DC00005498A4201D1012100E000210170704780002E4033D000003FE300000149487070470000B70C002010B50446FDF706FC072C01D9FF2C01D102480470FDF7F8FB19
:404E000010BD0000B70C00200149487070470000B40C002010B5064A012805D01921C9021046FDF7FFFA10BD1D21C902F8E7000090002E4010B50A4A141D012808D009497E
:404E40001046FDF7EFFA08492046FDF7EBFA10BD04491046891CFDF7E5FA0349491DF3E788002E4031D000003AE3000070B50C460546FDF7E3FBC0B202280E49287804D0EC
:404E8000FF2810D04C280CD810E0FF2809D10A4AD0680004800F032801D0087807E09069000A553803E00878207070BD4F382070087070BDB60C002000002E40F0B501229C
:404EC000002830D000292ED00424420600D00524792342065B06D21800D0641C034600221EE00C2516466E43104D00277519AF720E4F002ABB51696007D0661EB24209D11C
:404F00000B4E86197606760E05E05E06760E8027BE1B00E080269B198919521C2E81D2B2A242DED300221046F0BD00001813002079020000074900200C2242435218927A96
:404F4000012A05D0401CC0B20628F5D3002070470120704718130020F8B50F000446164609D0184D18496868A04202D94018A04201D38E4201D90120F8BD39462046FDF77E
:404F8000E1FD00281BD0324639462046FDF7E9FDF0B200210C224A43521913895668F718A74208D90127A41B1B1B9772834206DAC01A1469C0B2491CC9B20629EAD300202D
:404FC000F8BD0000181300207902000010B500F05DF80748054AC16806480C46FDF7C1FD04492046FFF76AFF10BD000079020000C00C00209C100020002070470020054ABB
:40500000002902D0012902D002E0506000E0906000207047C00C002070B5084C154608460549A26889182A46FDF79BFDA0684019A06028B270BD00009C100020C00C00201D
:405040003EB50A226946FFF7E7FF044606480A2200686946FDF776FD002802D00020C0433EBD20463EBD0000C00C0020002802D0044A914201D2FF20704703490A61C8603C
:405080000020704779020000C00C0020024800214160816070470000C00C002070B5074C15460548626880182A46FFF755FF60684019606028B270BD9C100020C00C002046
:4050C00010B503490A220968FFF7E8FF10BD0000C00C002010B50F4A002313600E4A13600E4B18600E4801600E49012008600E490860000290600E490C4808600D49143027
:405100000860FF381538506000F0BCF800F0CAF9002010BDEC0C0020D40C0020000D0020040D0020F00C0020E00C002060140020E40C0020F80C0020014610B500200029D4
:4051400010D0094B1A689C685118A14209D25868196080188A0704D08A07920F891A091D196010BD002010BDD40C0020F8B50024164E671E321F3D463168136806E014222C
:40518000624310328A58521C1BD0641C9C42F6D36A1C14D02C461422544322460C3288500C214843FFF7C8FF3168002808510AD031680020103408517068401C706028464E
:4051C000F8BD2546E4E73846F8BD0000E40C0020F3B50026F64381B000281BDB1E490968884217D80299002914D01B4F142204463F1D54432546396810354859401C09D0EE
:40520000FDF7FCF938682F1F4159C359994203DBFDF7EEF93046FEBD214608310091465801590C20704308180C220299FDF799FC0948761C001D0068C159B14200D1002636
:405240000549009A091D865008684159491C4151FDF7CEF90020FEBDE00C0020002803DB07490968884202D90020C043704704491422091D0968504310300858704700005D
:40528000E00C0020F0B500200D4A451E0346171F50600FE014260146714314680E1DA3510C461668083433511668083435511468401C635039688842ECD30020F0BD000023
:4052C000E40C0020F3B50026F64381B0002841DB2349096888423DD8029900293AD0204F142204463F1D54432546396810354859401C2FD0FDF782F93868415900292BD09C
:40530000211D009146580C21005971430F46C1190C220298FDF725FC11480021001D0068761C00590C34C0190160416081600C48001D00680159B14200D100260849009ACC
:40534000091D865008684159491E4151FDF750F90020FEBD3046FEBDFDF74AF9FAE70000E00C0020FEB504460D4600201E49089E0860471E009001900290002C11D0486807
:4053800085420ED2002A0CD0002E0AD0642E08D808460C3001681C2068430C18207A002801D03846FEBD0120226020721846FFF7DDFE6060401C13D06681A6810A482761B1
:4053C0000C3067610179A94200D205710021684601810A462846029B00F040F82846FEBD00202072DDE70000EC0C002038B50124009400F039F838BDFEB50027164EFF4335
:405400003D4600240EE01C20316860430818017A002906D04068FFF721FF002801D0254603E0641C3079A042EDDA681C12D01C2130684D434419FDF7E1F869466068FFF78C
:4054400041FF0546FDF7D4F8002DD9D1216868468847D5E7FEBD0000F80C002038B50024009400F001F838BD1FB500220C49541E0A60002811DB496888420ED808491C22BB
:405480000C31096850430818406801A9FFF7A0FE401C02D0002004B010BD2046FBE70000EC0C0020F0B50021114A4D1E174611710C3F0B46BD6016E008461C2460431668AD
:4054C000041D355114680646235014680836A3551468361DA353044616680A34335318301468491C255078688142E5D30020F0BDF80C002038B500210091002811DB0F49D2
:40550000097888420DDA0D4D04010C3529680859002807D0201D0818694600F06FF9002801D0002038BDFDF769F828680F34015D491E0155FDF75CF8009838BD080D0020E9
:40554000F7B582B0002502986E1E06602E48D21C024017462D4A2C4610460C380178106805E02301C358002B0FD0641CE4B28C42F7D3711C28D03401211D401801910399CB
:4055800000F02AF900281FD101E02646F1E71F48016820460C300F521C480399026820460E30115419480399026820460F3011540398784300F0A0F81449002809680851B7
:4055C00002D00024009011E001251AE00F48016801980818009900F02CF9002801D0012502E00098C0190090641CE4B203988442ECD3002D05D10298066004480179491C87
:405600000171284605B0F0BDFCFF0000140D0020F8B50D4600216A468C461180002839DB23490978884235DA214B04010C3319680A59002A2ED020460C300B5A801C0E5CED
:40564000184670438018954224D3854222D2002006E007465F43BF18AF4206D0401CC0B2B042F6D36046002814D0114E271DC8190C366A46294600F006F900280AD16846A5
:405680000088012808D030682946C01900F0D1F8002803D00120F8BD0020F8BDFCF7AEFF30680F34015D491C0155FCF7A1FFF3E7080D0020F8B50F46002400F031F8002885
:4056C00017D10C4900220B460C334A600EE021011D680E466A501D680C36AA53B61C1D680F31AA551D68641C6A54E4B2BC42EED31A71F8BD080D002000280BD0C01C074A57
:4057000081085068890053884118994203D89368516018187047002070470000080D0020F8B5064600200F4D009029700C0121466846FEF74FFC00280CD129460C310098CD
:405740000860301B001F84B221466846FEF742FC002801D0FF20F8BD6C800098A8600020F8BD0000080D0020F8B5002827DB19490978884223DA174C05010C342168485922
:4057800000281CD028460C30085A009028460E300E5C401C0E5420682F1DC01900F064F800280CD12068002445590EE0094829460C300068C01900F03CF8002801D00120B4
:4057C000F8BD00982D18641CE4B2B442EED30020F8BD0000080D002030B50D4604000BD0A800FFF789FF6060002805D000202570C0436080002030BD012030BD70B50D461B
:40580000040005D0002D03D00220205E002801DA012070BDFCF7F2FE0221615E60688900405828606088401E6080FCF7E1FE002070BD70B50D46040007D0002D05D00221AB
:405840002078615E401E814201DB012070BDFCF7D5FE6088401C00B26080616880000D50FCF7C6FE002070BD10B5040009D0227800216068FDF77EF90020C043608000208D
:4058800010BD012010BDF0B500231D46002802D00224045F0AE00120F0BD46689F00F6598E4201D1012503E05B1CDBB29C42F4DA15700020F0BD0000014800787047000006
:4058C0001C0D00207CB505460024FEF71FF9A8796946087000A8062229460130FDF741F90021684604F0E8FD0C2804D0072804D01F2804D004E0022402E0042400E02724BF
:4059000020467CBD10B502280BD0032802D0042809D102E000F048F905E000F0F3F9FF2801D100F003FAFFF721FAFFF72DFA10BD10B500F02BFAFFF719FAFFF725FA10BD81
:4059400070B504460025FEF7E1F8002C06D0A079012803D8214602F0CDFC00E00125284670BD01460120002902D05020088000207047000001460120002905D0034854228A
:405980000078504308800020704700001E0D002010B502460D49FE204870032410460CF0C5FE002810D10CF069FE00280CD105F019FB002808D100F0F3FB002804D104F073
:4059C000FFFF002800D10024204610BD1C0D002070B50025044600280ED0A07901280BD8FEF794F8A0790028204602D003F05EF803E003F033F800E00125284670BD00006C
:405A0000014610B50120002904D006220248FDF7A8F8002010BD0000200D002001460120002903D00878024908700020704700001E0D002010B5FFF799F9012801D1FFF7F5
:405A40009BF910BD38B504460120002C20D0617801291DD800290BD0FF25E535FEF756F80C4828180088C0B22070072803D00EE0FF25CD35F2E70020694608706846FFF7DC
:405A800097F969460878012801D108202070002038BD000000102E40F8B504460120002C26D06178012902D92278092A20D8002905D0FF25E5352078092803D004E0FF2524
:405AC000CD35F8E708202070FEF720F82078114F114E08280DD00020FFF7ACF970780128207810D00D4969180880FE2070700020F8BD0120FFF79EF90720B8810549203179
:405B000088800120F2E7B8810248217820308180EBE70000C0112E401C0D002000102E4070B50E46050001D0002400E00C4C002C11D0E28A500609D5D107C90F022003F001
:405B400053F8E08A40218843E08204E0D107C90F012003F049F83146284602F027FD70BDF8140020F8B50546002004460D4E009013E022466946284601F04AF800980028ED
:405B800001D00CF0B5FDA878214602F0FDFAA878214602F0EBFA641CE4B2308AA042E8D8F8BD0000B0150020FEB54E4DFFF7DEF8012849D14C480078002845D002F07EFC7A
:405BC000002841D004F01AF900283DD0474C6078C00703D000F0E6FC012835D0207E00287DD16078002600285BD0000706D540488089070B00F02EF9384370D13B48417832
:405C0000684603F065FF044628793A4DA9784018C1B2A14261D802F051FC00285FD0344860300089314F0190203702F09DFA6846008802F0C7FA02F057FB2F4909888842C9
:405C400003D10120FFF7D0F849E02C49012008702648807B00281BD00198002818D04037F87E002814D12248603000884000A0420AD96878002807D102F0E4FF2049088AE4
:405C800003221202104308822878002800D02E7002F0C6FA0120FFF7A1F800F0F5FB174C15E002F00BFC002819D0102402F01CFB214602F011FA02F085FA104C01202070D5
:405CC00002F0AEFA0020FFF789F800F0DDFB20780128B6D1FFF716F826700020FEBDFF20FEBD0000D0140020B40C0020D8140020A0102E402C0D00203E0D0020260D0020EF
:405D0000E0112E4010B50848FF244078002809D102F0D4FB012805D1FEF716FF0720FFF763F80024204610BDD814002038B5FFF71DF8012801D0002038BD02F0BFFB002892
:405D40000AD0114C6078C00703D000F02BFC012802D0207E002801D0FF2038BD617800290FD0684603F0B4FE022806D96846008802F028FA012002F059FA0320FFF734F88B
:405D8000D9E70020F7E70000D814002038B51E4CFEF7ECFF042813D0052811D0062812D003282AD007280AD100206946087002460120FEF7DBFEFEF7D9FF0128FBD138BD51
:405DC00000F082FB38BD02F049FA00F07DFB02F0C5FA8007800F0228F4D10C4841880029F0D05B21095D0029ECD101210170A07D0140022002F0F8FE38BD02F033FA0120F0
:405E0000FEF7F2FF38BD0000F81400202C0D0020F8B50646002402F055FF0546304602F06BFF03460A480021068A0DE001228A401046174628401F40002803D0002F01D1E6
:405E4000224394B2491CC9B28E42EFD82046F8BDB015002070B500252C460A4E03E0002C01D0002000E030460079002803D02046FFF7CEFF0543641C2406240EEFD02846A8
:405E800070BD0000F81400201CB50020694648706846FFF7D7FD01AA69460A20FEF766FE6946042008561CBD10B50C4601F082FA002809D00179002906D0C178807822463B
:405EC00002F0FAFB002010BD022010BD0148007870470000D01400204030C07E002800D00120704700B500F001F800BD8C2148430749084A40186030417F491CC9B2417770
:405F0000D289914201D300214177C8B270470000D8140020B015002013B501F04BFA04000BD001F0E8FD002807D0214601AA0A310620FEF71BFE00201CBD02201CBD00003D
:405F400010B50C4601F036FA00280AD001F0D3FD002806D0224604490A20FEF707FE002010BD022010BD0000B9140020F3B581B0074601460026029802F09CFE0446002F54
:405F800001D0002500E0154D002D21D0284601F047FA032C04D13946029802F0E7FE06463846029902F0E2F8032C06D0002C10D00121384601F03AFB03E03146384603F024
:405FC000D1F8284601F0C0FF0221284601F0D6FFFEBD3846029902F0C9F8FEBDF814002010B5044603F008FD002801D00C2010BD2078611C02F062FCFF2801D01F2010BD93
:4060000002F0A8FCFF280AD02178621C02F036F8044821780068026B601C904710BD072010BD0000440D002010B503F0E5FC002801D00C2010BD02F023FC03480068C06ADA
:406040008047002010BD0000440D002070B50D46044610210CF08CFA1021601806460CF087FA334610221946204603F0F3FC102130460CF07DFA02202870204604F0F8FBA1
:4060800070BD0000F8B504464078217802028006870FE0781143A67809050002090D0643084601F087F900210546F2B2002812D0002C10D0022F0ED0032F0CD0002A0AD00C
:4060C0000279092A07D0002A05D0134A5A23527E1B5C9A4207D82889002104F0FEFA20460CF006FBFF21002914D10C48224600682946436930469847C0B2FF280AD128467B
:406100004030817EF2B2491C8176FF232146284600F0DDF8F8BD0000901400205C0D00200020704710B5044603F066FC002801D00C2010BD2078611C02F0C0FBFF2808D044
:4061400002F0F8FA044821780068426B601C904710BD1F2010BD0000440D002010B504F02FFC00F057F9002010BD10B5044600786178E2780843A1781143084321790843F1
:406180006179084305D003F029FC002803D00C2010BD122010BD204602F088FC002010BD10B5FCF74BFA02F0AFFD044803F07AFD02F0CAFA012000F003F810BDA01400205D
:4061C000F1B586B003A8009005A8019025489F22817A114081726846FDF7B6FC00283FD169460989C90705D01F4806990068C2686846904769460989890706D500282FD17A
:406200001A480068816A06988847002828D1184E0025757075737571F575357675767575B570F570B5713746F5730120BC3738731F20F880FF2130467972A0300175457567
:4062400000F076FA00242046069901F0FFFB002803D1641C2406240EF5D0FD72BD72B57307B0F0BD901400205C0D0020440D0020D814002070B505460E46084602F022FDF6
:406280000446304602F038FD0121A9400A46224001400A4301D0012070BD002070BD10B50446084602F028FD0121A140014201D0012010BD002010BD10B5FEF757FD0328A1
:4062C00004D101F0CFFF0120FEF78EFD10BDFEB51C4616460F46054601F036FEA878FFF701FE02460190334639460094284600F00DF8002808D1A8780199FFF711FCFF2CA0
:4063000002D138460CF0F4F9FEBD0000FFB585B005460E980C46FF2810D02B49C00009680A5840180179C0795278814201D9012601E09006860F6846038108E06078A1787E
:406340008006860FE0780002014368460181284601F0DCFB070007D021462846079A00F0EBFB384609B0F0BD304600F099FC04AE0346039002AA29460096204600F025FB40
:406380003C20405D002818D0284601F0BFFB012813D0684600890096C0B20190A878231DFF22079902F0B6F868460089039BC2B2A878079902F0F6FBD3E768460089002120
:4063C000C0B20091E9E70000580D0020F8B5104F002500242846FFF71BFD060012D00EE03046E040C007C00F07D02146284601F0B3FE21462846FFF7B9FD641CE4B2388ACB
:40640000A042EDD86D1C2D062D0EE2D0F8BD0000B015002010B502F097F90020FFF7D0FE0CF0FCF9002010BDF8B5002400F0B4F80123012800D10124104F00203E46203660
:406440000425082203E0002801D0002100E031460979002907D001290BD002290BD0114681402143CCB2401C0006000EEBD07C70F8BD1C43F7E72C43F5E70000D81400208E
:4064800010B5FFF7D1FF10BD70B50E4CFBF775FC0546FEF76BFC062802D02078012803D02846FBF76EFC70BDFBF744FD2846FBF768FCFEF75BFC0628F5D020780028E5D1C4
:4064C00070BD0000260D002010B5FBF756FC0446FEF74CFC012809D0FEF748FC022805D0FBF728FD2046FBF74CFCEEE72046FBF748FC10BD10B50B4681791943817103D02C
:406500008078114602F01CFB10BD10B582798A43827102D1807802F027FB10BD30B50C4C0220A28A0B4B9978002901D0022906D11D785B78EB18282B01D9032002E0032953
:4065400000D101205105490DC0020143A18230BDC0112E40270D002000B500F023F8002807D0012805D0032801D0042801D0002000BD012000BD014600B50020C90701D0A6
:4065800000F00AF800BD014600B50020C90701D000F002F800BD000001480088000A704720102E400448008B410501D5042070474007800F7047000000102E4038B5044688
:4065C000000610D5FFF7EEFF01280CD1684601F059FE6846007800F0B3FA012001F01CFD0220FFF74DFF0348006801692046884738BD0000440D002010B5034A01781170BB
:4066000002F0C0F9002010BD270D002070B50446FFF7C2FF002801D00C2070BDA27B01211F48002A827801D00A4301E05208520082706279012A14D0C17849084900C170A1
:40664000184D2868016820468847207901280CD06188208803F000F82080207904280FD015E0C2780A43C270EAE72868C168E01D8847E01D02F006FA0B48808C208006E051
:406680002868C168E01D8847E01D02F0FBF9074920798870204602F083F9002070BD0000D8140020440D002090140020270D002008B50178FFF770FF814201D10C2008BDBA
:4066C000002914D0072069460870FFF745FF012807D10121684600F08BF8012801D0092008BDFFF71BFF02F08FF9012011E0FFF733FF012806D1684601F0C4FD684600788F
:4067000000F052FA02F076F9FFF746FF0028FBD10220FFF7B5FE002008BD000010B5034A0178517002F0ECF9002010BD270D002038B568460BF072FF002801D01F2038BD45
:4067400001210098C90201804180002505714571857107214173857302F022F9009C202200212046FCF706FA25702A460021601CFCF700FA204602F005F9204602F0C0F9DC
:4067800000980BF0B5FF042200210248FCF7F2F9002038BD270D00200346084800B5834209D8184600F006FE002804D00089984201D1012000BD002000BD0000FF0E00007B
:4067C000074A9179491C8906890E917138220A4092014907090E11430843024908407047D8140020FF0E0000C006C00E70470000F8B507460E4600240D4803E0002C01D01F
:40680000002500E005462979002905D0641C2406240EF3D00020F8BD0021204601F016F92E712046FFF7CCFF28813C700120F8BDF814002010B503F041F90222002100F029
:4068400003F801F02DFF10BD10B5094B40074907000F090F185A595A40185043C0086421FCF748F8002800D1012080B210BD000094550100F7B53D20405C88B015460C463F
:40688000002802D02878042802D200200BB0F0BD6946087200262046FFF71EFB012800D00126204603A938300191009023460327A17E34333246206A03F00EFA02A80899D5
:4068C00000900B46019120463A4603A9243003F0A1F802466846007A2870204601F0A2F81046D3E7FFB587B00C4605461078694608723D20005D1746002826D000262046B0
:40690000FFF7EAFA012800D00126204603A93830019100902346A17E34333246206A03F0DBF902A80090291D019120462B1D03A924300A9A03F06EF802006846007A38806A
:4069400002D1204601F06EF810460BB0F0BDF0B505463C20405C89B016460C4600280CD0307869460873002806D000272046FFF7B3FA012803D003E01F2009B0F0BD01274A
:4069800003200890204604A93830019100902346E17E34333A46E06903F09EF96846007B03A928180290009120462B46019504A92430089A03F062F802466846007B307057
:4069C000204601F039F81046D7E7FFB505463C20405C89B016460C46002810D0084601F095F801280BD0308869468883002809D000272046FFF770FA012805D005E00020E2
:406A00000DB0F0BD0220FBE70127204603A93830019100902346E17E34333A46E06903F05BF9291D2B1D07A8129A6D4607C5204603A924300C9A03F021F802466846808B64
:406A40003080204600F0F8FF1046D9E770B50D460446FFF741FA01280AD0E87AA97A00020143A07801F008FD012808D0002070BD00222421204602F041FD242070BD28212F
:406A80004C200155204600F0A3FB282070BD0000002801D0002000E003484030C07F012800D0002070470000F81400200146002049070ED50021084B03E0002901D00022AF
:406AC00000E01A461279022A04D0491C0906090EF3D0704701207047F81400200146002049070ED50021084B03E0002901D0002200E01A461279022A04D0491C0906090E5F
:406B0000F3D0704701207047F814002010B5044680346068002803D00BF0FEFD0020606010BD4030417070474030817070474030017070470171704792001018C166704765
:406B400070B53C2501F080F9040004D020460021433001F031FCFF222946204600F0D4FB002C02D0A07801F0F1F870BD10B5002801D0002000E00348002802D0008903F0E4
:406B8000F3FD10BDF814002010B5002801D0002000E00448002804D00179072901D100F047F810BDF814002010B501F04DF9002802D0807801F0CAF810BD002070470000FD
:406BC00070B50546008A00281ED01049F122897A1140C90618D5294640314A8A098A521C4A4392B2D10800D10121540801E0621A94B2A042FBD9FEF75FFE012804D1298AFF
:406C0000A878224601F00EFD70BD00009014002010B50023054C0B60248A944204D992001018C26E0A60C36610BD0000B015002038B5044600200090A079002814D140203E
:406C4000015D052901D00E290ED168460BF0F6FC002809D12046009902F02EFC03481021C28A2046FFF746FC38BD00009014002010B50B4604460146184602F0ABF8002808
:406C800002D020460BF03EFD10BD13B5044601AA11460620FDF76AFF6846818861811CBD002800D10220704770470000F8B504462346401D543300909A1EA078911E01F0C3
:406CC000FDFA25464035A88A298A8000FBF712FE401E81B2688A884203D96982A07801F0BDFF20460021433001F066FB27480088E88102F0E3FEE989891C8AB26179FFF7DB
:406D0000A3FD01F0CDFC02F0D9FE2A8A6179FFF79BFD074601F0B8FC688A002806D01C49088A032212021043088202E0002001F089FF1748803801886E8A002E0CD0304692
:406D400048431449FBF7C6FE0004000C01D0401C80B21149488002E00F4800214180288A704381B2A07801F0D9FEFF2228374932B9B21346204602F073FCE98AA07801F04F
:406D80004DFEA07801F012FAF8BD000080102E40E0112E40710200002C0D00207FB504468034616805460E46183108226846FBF7D8FE31462031082202A8FBF7D2FE102183
:406DC00068460BF0D5FB6068102108300BF0D0FB60682B46083024331022694602F03AFE7FBD10B504460821FFF78FFB10212046FFF78BFB207905281FD006281DD0082849
:406E00001AD12189002003F027FC072020712046FFF762F8014620464030012913D00E21017000210176204600F0A2FF2046FFF76DFE2046FFF7C4FE10BD20890122002121
:406E400003F0EEFBE1E70521EAE70000FFB581B01F4604460821FFF758FB10212046FFF754FB2079082803D0092804D0042203E00422012501E009220025204600F032FEE8
:406E8000264600204036307022712046FFF73EFE0398002D02D0012808D00BE001280AD120890022029903F0BBFB04E02189029803F0D2FB012700203076012F04D020462C
:406EC00000F056FF05B0F0BD02983073204602F041FB054605480121C28A2046FFF70AFB002DEFD109202071ECE700009014002070B50C460546FEF7EFFF012809D10821A4
:406F00002846FFF702FB0023012221462846FFF79DFF70BD10B5044600F0E4FD2046FFF7F5FD00214034217010BD70B505461A24FEF7D2FF012809D108212846FFF7E5FA12
:406F40000023012221462846FFF780FF70BD0000F8B50446002000900E4668460BF06EFB002801D00D20F8BD8420005908212030009D00F01AFA20460421383000F015FA63
:406F8000002E02D1204600F0E9FD2946204602F022FA0E480821C28A2046FFF7ABFA204600F057FF25464035002808D0204600F023F8002801D0092028700020F8BD082031
:406FC0002870204600F0C0FFF7E7000090140020014610B540310A460978082906D0092907D00A2901D100F091F810BD0B20107010BD00F001F810BD70B504460079254618
:407000004035052805D0062803D008280FD00C2070BD03220621204602F070FA0D480821C28A2046FFF766FA1120287010E006202873204602F08EFA0646AA8A0A20424353
:4070400001212046FFF756FA002E01D109202071002070BD9014002038B504460020009068460BF0EBFA002801D00D2038BD2046009D00F0B1F908202071204600F06EFDD0
:407080002946204602F0DAF900213D2001550F2040210855204600F057FF002038BD00B5024600F01FFD10214032117000BD10B50446FEF711FF012809D04020005D1128BE
:4070C00005D100231A4606212046FFF7BFFE10BD10B5FFF786FE10BD38B504460021684600910BF0ABFA00280CD12046009902F026FA05480821C28A2046FFF7FBF90D2092
:407100004034207038BD00009014002038B504460021684600910BF091FA002801D00D2038BD2046009902F0FFF905480821C28A2046FFF7DFF90C2040342070002038BD36
:407140009014002000787047F8B50025002801D0002400E01A4C002C28D0204600F0CBFC002823D0207903281CD005281CD026464036B18AA07801F0DBFCB078012815D18E
:407180000021204601F043FE274680373868002802D00BF0C1FA3D600020B0702079072805D007E0042000E006202071F8BD2046FFF706FD0221204600F0E0FEF8BD000066
:4071C000F814002010B54C22115400F04CF810BD10B50446FF21FFF798F909202071A07801F0CCFC10BD000038B5FF216A461180002801D0002400E0084C002C0DD01146BD
:407200000620FDF7B3FC684601882046FFF73DFD03480068C1692046884738BDF81400205C0D002010B504468079002809D022214C200155FF212046FFF767F9204600F0BC
